{
  "contractName": "OnescreenerHeroToken",
  "abi": [
    {
      "inputs": [],
      "stateMutability": "nonpayable",
      "type": "constructor"
    },
    {
      "anonymous": false,
      "inputs": [
        {
          "indexed": true,
          "internalType": "address",
          "name": "owner",
          "type": "address"
        },
        {
          "indexed": true,
          "internalType": "address",
          "name": "approved",
          "type": "address"
        },
        {
          "indexed": true,
          "internalType": "uint256",
          "name": "tokenId",
          "type": "uint256"
        }
      ],
      "name": "Approval",
      "type": "event"
    },
    {
      "anonymous": false,
      "inputs": [
        {
          "indexed": true,
          "internalType": "address",
          "name": "owner",
          "type": "address"
        },
        {
          "indexed": true,
          "internalType": "address",
          "name": "operator",
          "type": "address"
        },
        {
          "indexed": false,
          "internalType": "bool",
          "name": "approved",
          "type": "bool"
        }
      ],
      "name": "ApprovalForAll",
      "type": "event"
    },
    {
      "anonymous": false,
      "inputs": [
        {
          "indexed": false,
          "internalType": "uint256",
          "name": "tokenId",
          "type": "uint256"
        },
        {
          "indexed": false,
          "internalType": "string",
          "name": "domain",
          "type": "string"
        }
      ],
      "name": "NewToken",
      "type": "event"
    },
    {
      "anonymous": false,
      "inputs": [
        {
          "indexed": true,
          "internalType": "address",
          "name": "previousOwner",
          "type": "address"
        },
        {
          "indexed": true,
          "internalType": "address",
          "name": "newOwner",
          "type": "address"
        }
      ],
      "name": "OwnershipTransferred",
      "type": "event"
    },
    {
      "anonymous": false,
      "inputs": [
        {
          "indexed": true,
          "internalType": "address",
          "name": "from",
          "type": "address"
        },
        {
          "indexed": true,
          "internalType": "address",
          "name": "to",
          "type": "address"
        },
        {
          "indexed": false,
          "internalType": "uint256",
          "name": "tokenId",
          "type": "uint256"
        }
      ],
      "name": "Reclaim",
      "type": "event"
    },
    {
      "anonymous": false,
      "inputs": [
        {
          "indexed": true,
          "internalType": "address",
          "name": "from",
          "type": "address"
        },
        {
          "indexed": true,
          "internalType": "address",
          "name": "to",
          "type": "address"
        },
        {
          "indexed": true,
          "internalType": "uint256",
          "name": "tokenId",
          "type": "uint256"
        }
      ],
      "name": "Transfer",
      "type": "event"
    },
    {
      "inputs": [
        {
          "internalType": "address",
          "name": "to",
          "type": "address"
        },
        {
          "internalType": "uint256",
          "name": "tokenId",
          "type": "uint256"
        }
      ],
      "name": "approve",
      "outputs": [],
      "stateMutability": "nonpayable",
      "type": "function"
    },
    {
      "inputs": [
        {
          "internalType": "address",
          "name": "owner",
          "type": "address"
        }
      ],
      "name": "balanceOf",
      "outputs": [
        {
          "internalType": "uint256",
          "name": "",
          "type": "uint256"
        }
      ],
      "stateMutability": "view",
      "type": "function",
      "constant": true
    },
    {
      "inputs": [
        {
          "internalType": "uint256",
          "name": "tokenId",
          "type": "uint256"
        }
      ],
      "name": "getApproved",
      "outputs": [
        {
          "internalType": "address",
          "name": "",
          "type": "address"
        }
      ],
      "stateMutability": "view",
      "type": "function",
      "constant": true
    },
    {
      "inputs": [],
      "name": "name",
      "outputs": [
        {
          "internalType": "string",
          "name": "",
          "type": "string"
        }
      ],
      "stateMutability": "view",
      "type": "function",
      "constant": true
    },
    {
      "inputs": [],
      "name": "owner",
      "outputs": [
        {
          "internalType": "address",
          "name": "",
          "type": "address"
        }
      ],
      "stateMutability": "view",
      "type": "function",
      "constant": true
    },
    {
      "inputs": [
        {
          "internalType": "uint256",
          "name": "tokenId",
          "type": "uint256"
        }
      ],
      "name": "ownerOf",
      "outputs": [
        {
          "internalType": "address",
          "name": "",
          "type": "address"
        }
      ],
      "stateMutability": "view",
      "type": "function",
      "constant": true
    },
    {
      "inputs": [],
      "name": "renounceOwnership",
      "outputs": [],
      "stateMutability": "nonpayable",
      "type": "function"
    },
    {
      "inputs": [
        {
          "internalType": "address",
          "name": "from",
          "type": "address"
        },
        {
          "internalType": "address",
          "name": "to",
          "type": "address"
        },
        {
          "internalType": "uint256",
          "name": "tokenId",
          "type": "uint256"
        }
      ],
      "name": "safeTransferFrom",
      "outputs": [],
      "stateMutability": "payable",
      "type": "function",
      "payable": true
    },
    {
      "inputs": [
        {
          "internalType": "address",
          "name": "from",
          "type": "address"
        },
        {
          "internalType": "address",
          "name": "to",
          "type": "address"
        },
        {
          "internalType": "uint256",
          "name": "tokenId",
          "type": "uint256"
        },
        {
          "internalType": "bytes",
          "name": "_data",
          "type": "bytes"
        }
      ],
      "name": "safeTransferFrom",
      "outputs": [],
      "stateMutability": "payable",
      "type": "function",
      "payable": true
    },
    {
      "inputs": [
        {
          "internalType": "bytes4",
          "name": "interfaceId",
          "type": "bytes4"
        }
      ],
      "name": "supportsInterface",
      "outputs": [
        {
          "internalType": "bool",
          "name": "",
          "type": "bool"
        }
      ],
      "stateMutability": "view",
      "type": "function",
      "constant": true
    },
    {
      "inputs": [],
      "name": "symbol",
      "outputs": [
        {
          "internalType": "string",
          "name": "",
          "type": "string"
        }
      ],
      "stateMutability": "view",
      "type": "function",
      "constant": true
    },
    {
      "inputs": [
        {
          "internalType": "uint256",
          "name": "",
          "type": "uint256"
        }
      ],
      "name": "tokenToOwner",
      "outputs": [
        {
          "internalType": "address",
          "name": "",
          "type": "address"
        }
      ],
      "stateMutability": "view",
      "type": "function",
      "constant": true
    },
    {
      "inputs": [
        {
          "internalType": "uint256",
          "name": "tokenId",
          "type": "uint256"
        }
      ],
      "name": "tokenURI",
      "outputs": [
        {
          "internalType": "string",
          "name": "",
          "type": "string"
        }
      ],
      "stateMutability": "view",
      "type": "function",
      "constant": true
    },
    {
      "inputs": [
        {
          "internalType": "address",
          "name": "newOwner",
          "type": "address"
        }
      ],
      "name": "transferOwnership",
      "outputs": [],
      "stateMutability": "nonpayable",
      "type": "function"
    },
    {
      "inputs": [
        {
          "internalType": "address",
          "name": "to",
          "type": "address"
        },
        {
          "internalType": "string",
          "name": "domain",
          "type": "string"
        }
      ],
      "name": "mint",
      "outputs": [],
      "stateMutability": "nonpayable",
      "type": "function"
    },
    {
      "inputs": [
        {
          "internalType": "address",
          "name": "from",
          "type": "address"
        },
        {
          "internalType": "address",
          "name": "to",
          "type": "address"
        },
        {
          "internalType": "uint256",
          "name": "tokenId",
          "type": "uint256"
        }
      ],
      "name": "transferFrom",
      "outputs": [],
      "stateMutability": "payable",
      "type": "function",
      "payable": true
    },
    {
      "inputs": [
        {
          "internalType": "address",
          "name": "to",
          "type": "address"
        },
        {
          "internalType": "uint256",
          "name": "tokenId",
          "type": "uint256"
        }
      ],
      "name": "reclaim",
      "outputs": [],
      "stateMutability": "payable",
      "type": "function",
      "payable": true
    },
    {
      "inputs": [],
      "name": "getTokens",
      "outputs": [
        {
          "components": [
            {
              "internalType": "string",
              "name": "domain",
              "type": "string"
            },
            {
              "internalType": "uint8",
              "name": "transferCount",
              "type": "uint8"
            },
            {
              "internalType": "uint32",
              "name": "validUntil",
              "type": "uint32"
            }
          ],
          "internalType": "struct OnescreenerHeroToken.OnescreenerHero[]",
          "name": "",
          "type": "tuple[]"
        }
      ],
      "stateMutability": "view",
      "type": "function",
      "constant": true
    },
    {
      "inputs": [
        {
          "internalType": "address",
          "name": "_owner",
          "type": "address"
        }
      ],
      "name": "getTokensByOwner",
      "outputs": [
        {
          "internalType": "uint256[]",
          "name": "",
          "type": "uint256[]"
        }
      ],
      "stateMutability": "view",
      "type": "function",
      "constant": true
    },
    {
      "inputs": [
        {
          "internalType": "uint256",
          "name": "tokenId",
          "type": "uint256"
        },
        {
          "internalType": "string",
          "name": "domain",
          "type": "string"
        }
      ],
      "name": "changeName",
      "outputs": [],
      "stateMutability": "nonpayable",
      "type": "function"
    }
  ],
  "bytecode": "0x608060405266038d7ea4c68000600755606460085562093a806009553480156200002857600080fd5b506040518060400160405280601481526020017f4f6e6573637265656e65724865726f546f6b656e0000000000000000000000008152506040518060400160405280600381526020017f4f48540000000000000000000000000000000000000000000000000000000000815250620000b5620000a9620000ef60201b60201c565b620000f760201b60201c565b8160019080519060200190620000cd929190620001bb565b508060029080519060200190620000e6929190620001bb565b505050620002d0565b600033905090565b60008060009054906101000a900473ffffffffffffffffffffffffffffffffffffffff169050816000806101000a81548173ffffffffffffffffffffffffffffffffffffffff021916908373ffffffffffffffffffffffffffffffffffffffff1602179055508173ffffffffffffffffffffffffffffffffffffffff168173ffffffffffffffffffffffffffffffffffffffff167f8be0079c531659141344cd1fd0a4f28419497f9722a3daafe3b4186f6b6457e060405160405180910390a35050565b828054620001c9906200029a565b90600052602060002090601f016020900481019282620001ed576000855562000239565b82601f106200020857805160ff191683800117855562000239565b8280016001018555821562000239579182015b82811115620002385782518255916020019190600101906200021b565b5b5090506200024891906200024c565b5090565b5b80821115620002675760008160009055506001016200024d565b5090565b7f4e487b7100000000000000000000000000000000000000000000000000000000600052602260045260246000fd5b60006002820490506001821680620002b357607f821691505b60208210811415620002ca57620002c96200026b565b5b50919050565b6135d680620002e06000396000f3fe60806040526004361061011f5760003560e01c80638bd317eb116100a0578063c39cbef111610064578063c39cbef1146103b1578063c87b56dd146103da578063cc0b2c9f14610417578063d0def52114610454578063f2fde38b1461047d5761011f565b80638bd317eb146102f85780638da5cb5b1461031457806395d89b411461033f578063aa6ca8081461036a578063b88d4fde146103955761011f565b806340398d67116100e757806340398d671461020e57806342842e0e1461024b5780636352211e1461026757806370a08231146102a4578063715018a6146102e15761011f565b806301ffc9a71461012457806306fdde0314610161578063081812fc1461018c578063095ea7b3146101c957806323b872dd146101f2575b600080fd5b34801561013057600080fd5b5061014b6004803603810190610146919061206f565b6104a6565b60405161015891906120b7565b60405180910390f35b34801561016d57600080fd5b50610176610588565b604051610183919061216b565b60405180910390f35b34801561019857600080fd5b506101b360048036038101906101ae91906121c3565b61061a565b6040516101c09190612231565b60405180910390f35b3480156101d557600080fd5b506101f060048036038101906101eb9190612278565b61069f565b005b61020c600480360381019061020791906122b8565b61079f565b005b34801561021a57600080fd5b506102356004803603810190610230919061230b565b6108c9565b60405161024291906123f6565b60405180910390f35b610265600480360381019061026091906122b8565b6109be565b005b34801561027357600080fd5b5061028e600480360381019061028991906121c3565b6109de565b60405161029b9190612231565b60405180910390f35b3480156102b057600080fd5b506102cb60048036038101906102c6919061230b565b610a90565b6040516102d89190612427565b60405180910390f35b3480156102ed57600080fd5b506102f6610b48565b005b610312600480360381019061030d9190612278565b610bd0565b005b34801561032057600080fd5b50610329610cd4565b6040516103369190612231565b60405180910390f35b34801561034b57600080fd5b50610354610cfd565b604051610361919061216b565b60405180910390f35b34801561037657600080fd5b5061037f610d8f565b60405161038c91906125d9565b60405180910390f35b6103af60048036038101906103aa9190612730565b610ec3565b005b3480156103bd57600080fd5b506103d860048036038101906103d39190612813565b610f25565b005b3480156103e657600080fd5b5061040160048036038101906103fc91906121c3565b610fa8565b60405161040e919061216b565b60405180910390f35b34801561042357600080fd5b5061043e600480360381019061043991906121c3565b61104f565b60405161044b9190612231565b60405180910390f35b34801561046057600080fd5b5061047b60048036038101906104769190612873565b611082565b005b34801561048957600080fd5b506104a4600480360381019061049f919061230b565b61128e565b005b60007fcb05056d000000000000000000000000000000000000000000000000000000007bffffffffffffffffffffffffffffffffffffffffffffffffffffffff1916827bffffffffffffffffffffffffffffffffffffffffffffffffffffffff1916148061057157507f5b5e139f000000000000000000000000000000000000000000000000000000007bffffffffffffffffffffffffffffffffffffffffffffffffffffffff1916827bffffffffffffffffffffffffffffffffffffffffffffffffffffffff1916145b80610581575061058082611386565b5b9050919050565b60606001805461059790612902565b80601f01602080910402602001604051908101604052809291908181526020018280546105c390612902565b80156106105780601f106105e557610100808354040283529160200191610610565b820191906000526020600020905b8154815290600101906020018083116105f357829003601f168201915b5050505050905090565b6000610625826113f0565b610664576040517f08c379a000000000000000000000000000000000000000000000000000000000815260040161065b906129a6565b60405180910390fd5b6005600083815260200190815260200160002060009054906101000a900473ffffffffffffffffffffffffffffffffffffffff169050919050565b60006106aa826109de565b90508073ffffffffffffffffffffffffffffffffffffffff168373ffffffffffffffffffffffffffffffffffffffff16141561071b576040517f08c379a000000000000000000000000000000000000000000000000000000000815260040161071290612a38565b60405180910390fd5b8073ffffffffffffffffffffffffffffffffffffffff1661073a61145c565b73ffffffffffffffffffffffffffffffffffffffff1614610790576040517f08c379a000000000000000000000000000000000000000000000000000000000815260040161078790612aca565b60405180910390fd5b61079a8383611464565b505050565b6000670de0b6b3a7640000600b83815481106107be576107bd612aea565b5b906000526020600020906002020160010160009054906101000a900460ff1660ff166007546107ed9190612b48565b6107f79190612b9e565b905080341461083b576040517f08c379a000000000000000000000000000000000000000000000000000000000815260040161083290612c6a565b60405180910390fd5b61084361145c565b73ffffffffffffffffffffffffffffffffffffffff166108628361061a565b73ffffffffffffffffffffffffffffffffffffffff16146108b8576040517f08c379a00000000000000000000000000000000000000000000000000000000081526004016108af90612cfc565b60405180910390fd5b6108c384848461151d565b50505050565b606060006108d683610a90565b67ffffffffffffffff8111156108ef576108ee612605565b5b60405190808252806020026020018201604052801561091d5781602001602082028036833780820191505090505b5090506000805b61092e600a611779565b8110156109b3578473ffffffffffffffffffffffffffffffffffffffff16610955826109de565b73ffffffffffffffffffffffffffffffffffffffff1614156109a0578083838151811061098557610984612aea565b5b602002602001018181525050818061099c90612d1c565b9250505b80806109ab90612d1c565b915050610924565b508192505050919050565b6109d983838360405180602001604052806000815250610ec3565b505050565b6000806003600084815260200190815260200160002060009054906101000a900473ffffffffffffffffffffffffffffffffffffffff169050600073ffffffffffffffffffffffffffffffffffffffff168173ffffffffffffffffffffffffffffffffffffffff161415610a87576040517f08c379a0000000000000000000000000000000000000000000000000000000008152600401610a7e90612dd7565b60405180910390fd5b80915050919050565b60008073ffffffffffffffffffffffffffffffffffffffff168273ffffffffffffffffffffffffffffffffffffffff161415610b01576040517f08c379a0000000000000000000000000000000000000000000000000000000008152600401610af890612e69565b60405180910390fd5b600460008373ffffffffffffffffffffffffffffffffffffffff1673ffffffffffffffffffffffffffffffffffffffff168152602001908152602001600020549050919050565b610b5061145c565b73ffffffffffffffffffffffffffffffffffffffff16610b6e610cd4565b73ffffffffffffffffffffffffffffffffffffffff1614610bc4576040517f08c379a0000000000000000000000000000000000000000000000000000000008152600401610bbb90612ed5565b60405180910390fd5b610bce6000611787565b565b80610bda816109de565b73ffffffffffffffffffffffffffffffffffffffff16610bf861145c565b73ffffffffffffffffffffffffffffffffffffffff1614610c1857600080fd5b8273ffffffffffffffffffffffffffffffffffffffff16610c388361061a565b73ffffffffffffffffffffffffffffffffffffffff1614610c5857600080fd5b610c6360008361069f565b8273ffffffffffffffffffffffffffffffffffffffff16610c8261145c565b73ffffffffffffffffffffffffffffffffffffffff167f1944597efffa5395bb42ab0e1da7a3d8027507d9502fd1b9936ab33a7519813a84604051610cc79190612427565b60405180910390a3505050565b60008060009054906101000a900473ffffffffffffffffffffffffffffffffffffffff16905090565b606060028054610d0c90612902565b80601f0160208091040260200160405190810160405280929190818152602001828054610d3890612902565b8015610d855780601f10610d5a57610100808354040283529160200191610d85565b820191906000526020600020905b815481529060010190602001808311610d6857829003601f168201915b5050505050905090565b6060600b805480602002602001604051908101604052809291908181526020016000905b82821015610eba5783829060005260206000209060020201604051806060016040529081600082018054610de690612902565b80601f0160208091040260200160405190810160405280929190818152602001828054610e1290612902565b8015610e5f5780601f10610e3457610100808354040283529160200191610e5f565b820191906000526020600020905b815481529060010190602001808311610e4257829003601f168201915b505050505081526020016001820160009054906101000a900460ff1660ff1660ff1681526020016001820160019054906101000a900463ffffffff1663ffffffff1663ffffffff168152505081526020019060010190610db3565b50505050905090565b610ed4610ece61145c565b8361184b565b610f13576040517f08c379a0000000000000000000000000000000000000000000000000000000008152600401610f0a90612cfc565b60405180910390fd5b610f1f848484846118d4565b50505050565b82610f2f816109de565b73ffffffffffffffffffffffffffffffffffffffff16610f4d61145c565b73ffffffffffffffffffffffffffffffffffffffff1614610f6d57600080fd5b8282600b8681548110610f8357610f82612aea565b5b90600052602060002090600202016000019190610fa1929190611eda565b5050505050565b6060610fb3826113f0565b610ff2576040517f08c379a0000000000000000000000000000000000000000000000000000000008152600401610fe990612f67565b60405180910390fd5b6000610ffc611930565b9050600081511161101c5760405180602001604052806000815250611047565b806110268461196d565b604051602001611037929190612fc3565b6040516020818303038152906040525b915050919050565b600c6020528060005260406000206000915054906101000a900473ffffffffffffffffffffffffffffffffffffffff1681565b61108a61145c565b73ffffffffffffffffffffffffffffffffffffffff166110a8610cd4565b73ffffffffffffffffffffffffffffffffffffffff16146110fe576040517f08c379a00000000000000000000000000000000000000000000000000000000081526004016110f590612ed5565b60405180910390fd5b60085461110b600a611779565b1061111557600080fd5b6000600954426111259190612b48565b9050600b604051806060016040528085858080601f016020809104026020016040519081016040528093929190818152602001838380828437600081840152601f19601f820116905080830192505050505050508152602001600060ff1681526020018363ffffffff16815250908060018154018082558091505060019003906000526020600020906002020160009091909190915060008201518160000190805190602001906111d7929190611f60565b5060208201518160010160006101000a81548160ff021916908360ff16021790555060408201518160010160016101000a81548163ffffffff021916908363ffffffff160217905550505060006001600b805490506112369190612fe7565b90506112428582611ace565b61124c600a611aec565b7fca8605e5b2854022d4ef7e920a48b0c49ca69a8453970d922c3dd8b93057fa6781858560405161127f93929190613048565b60405180910390a15050505050565b61129661145c565b73ffffffffffffffffffffffffffffffffffffffff166112b4610cd4565b73ffffffffffffffffffffffffffffffffffffffff161461130a576040517f08c379a000000000000000000000000000000000000000000000000000000000815260040161130190612ed5565b60405180910390fd5b600073ffffffffffffffffffffffffffffffffffffffff168173ffffffffffffffffffffffffffffffffffffffff16141561137a576040517f08c379a0000000000000000000000000000000000000000000000000000000008152600401611371906130ec565b60405180910390fd5b61138381611787565b50565b60007f01ffc9a7000000000000000000000000000000000000000000000000000000007bffffffffffffffffffffffffffffffffffffffffffffffffffffffff1916827bffffffffffffffffffffffffffffffffffffffffffffffffffffffff1916149050919050565b60008073ffffffffffffffffffffffffffffffffffffffff166003600084815260200190815260200160002060009054906101000a900473ffffffffffffffffffffffffffffffffffffffff1673ffffffffffffffffffffffffffffffffffffffff1614159050919050565b600033905090565b816005600083815260200190815260200160002060006101000a81548173ffffffffffffffffffffffffffffffffffffffff021916908373ffffffffffffffffffffffffffffffffffffffff160217905550808273ffffffffffffffffffffffffffffffffffffffff166114d7836109de565b73ffffffffffffffffffffffffffffffffffffffff167f8c5be1e5ebec7d5bd14f71427d1e84f3dd0314c0f7b2291e5b200ac8c7c3b92560405160405180910390a45050565b8273ffffffffffffffffffffffffffffffffffffffff1661153d826109de565b73ffffffffffffffffffffffffffffffffffffffff1614611593576040517f08c379a000000000000000000000000000000000000000000000000000000000815260040161158a9061317e565b60405180910390fd5b600073ffffffffffffffffffffffffffffffffffffffff168273ffffffffffffffffffffffffffffffffffffffff161415611603576040517f08c379a00000000000000000000000000000000000000000000000000000000081526004016115fa90613210565b60405180910390fd5b61160e838383611b02565b611619600082611464565b6001600460008573ffffffffffffffffffffffffffffffffffffffff1673ffffffffffffffffffffffffffffffffffffffff16815260200190815260200160002060008282546116699190612fe7565b925050819055506001600460008473ffffffffffffffffffffffffffffffffffffffff1673ffffffffffffffffffffffffffffffffffffffff16815260200190815260200160002060008282546116c09190612b48565b92505081905550816003600083815260200190815260200160002060006101000a81548173ffffffffffffffffffffffffffffffffffffffff021916908373ffffffffffffffffffffffffffffffffffffffff160217905550808273ffffffffffffffffffffffffffffffffffffffff168473ffffffffffffffffffffffffffffffffffffffff167fddf252ad1be2c89b69c2b068fc378daa952ba7f163c4a11628f55a4df523b3ef60405160405180910390a4505050565b600081600001549050919050565b60008060009054906101000a900473ffffffffffffffffffffffffffffffffffffffff169050816000806101000a81548173ffffffffffffffffffffffffffffffffffffffff021916908373ffffffffffffffffffffffffffffffffffffffff1602179055508173ffffffffffffffffffffffffffffffffffffffff168173ffffffffffffffffffffffffffffffffffffffff167f8be0079c531659141344cd1fd0a4f28419497f9722a3daafe3b4186f6b6457e060405160405180910390a35050565b6000611856826113f0565b611895576040517f08c379a000000000000000000000000000000000000000000000000000000000815260040161188c906132a2565b60405180910390fd5b8273ffffffffffffffffffffffffffffffffffffffff166118b58361061a565b73ffffffffffffffffffffffffffffffffffffffff1614905092915050565b6118df84848461151d565b6118eb84848484611b07565b61192a576040517f08c379a000000000000000000000000000000000000000000000000000000000815260040161192190613334565b60405180910390fd5b50505050565b60606040518060400160405280601c81526020017f68747470733a2f2f6865726f2e6f6e6573637265656e65722e636f6d00000000815250905090565b606060008214156119b5576040518060400160405280600181526020017f30000000000000000000000000000000000000000000000000000000000000008152509050611ac9565b600082905060005b600082146119e75780806119d090612d1c565b915050600a826119e09190613383565b91506119bd565b60008167ffffffffffffffff811115611a0357611a02612605565b5b6040519080825280601f01601f191660200182016040528015611a355781602001600182028036833780820191505090505b5090505b60008514611ac257600182611a4e9190612fe7565b9150600a85611a5d91906133b4565b6030611a699190612b48565b60f81b818381518110611a7f57611a7e612aea565b5b60200101907effffffffffffffffffffffffffffffffffffffffffffffffffffffffffffff1916908160001a905350600a85611abb9190613383565b9450611a39565b8093505050505b919050565b611ae8828260405180602001604052806000815250611c9e565b5050565b6001816000016000828254019250508190555050565b505050565b6000611b288473ffffffffffffffffffffffffffffffffffffffff16611cf9565b15611c91578373ffffffffffffffffffffffffffffffffffffffff1663150b7a02611b5161145c565b8786866040518563ffffffff1660e01b8152600401611b73949392919061343a565b602060405180830381600087803b158015611b8d57600080fd5b505af1925050508015611bbe57506040513d601f19601f82011682018060405250810190611bbb919061349b565b60015b611c41573d8060008114611bee576040519150601f19603f3d011682016040523d82523d6000602084013e611bf3565b606091505b50600081511415611c39576040517f08c379a0000000000000000000000000000000000000000000000000000000008152600401611c3090613334565b60405180910390fd5b805181602001fd5b63150b7a0260e01b7bffffffffffffffffffffffffffffffffffffffffffffffffffffffff1916817bffffffffffffffffffffffffffffffffffffffffffffffffffffffff191614915050611c96565b600190505b949350505050565b611ca88383611d0c565b611cb56000848484611b07565b611cf4576040517f08c379a0000000000000000000000000000000000000000000000000000000008152600401611ceb90613334565b60405180910390fd5b505050565b600080823b905060008111915050919050565b600073ffffffffffffffffffffffffffffffffffffffff168273ffffffffffffffffffffffffffffffffffffffff161415611d7c576040517f08c379a0000000000000000000000000000000000000000000000000000000008152600401611d7390613514565b60405180910390fd5b611d85816113f0565b15611dc5576040517f08c379a0000000000000000000000000000000000000000000000000000000008152600401611dbc90613580565b60405180910390fd5b611dd160008383611b02565b6001600460008473ffffffffffffffffffffffffffffffffffffffff1673ffffffffffffffffffffffffffffffffffffffff1681526020019081526020016000206000828254611e219190612b48565b92505081905550816003600083815260200190815260200160002060006101000a81548173ffffffffffffffffffffffffffffffffffffffff021916908373ffffffffffffffffffffffffffffffffffffffff160217905550808273ffffffffffffffffffffffffffffffffffffffff16600073ffffffffffffffffffffffffffffffffffffffff167fddf252ad1be2c89b69c2b068fc378daa952ba7f163c4a11628f55a4df523b3ef60405160405180910390a45050565b828054611ee690612902565b90600052602060002090601f016020900481019282611f085760008555611f4f565b82601f10611f2157803560ff1916838001178555611f4f565b82800160010185558215611f4f579182015b82811115611f4e578235825591602001919060010190611f33565b5b509050611f5c9190611fe6565b5090565b828054611f6c90612902565b90600052602060002090601f016020900481019282611f8e5760008555611fd5565b82601f10611fa757805160ff1916838001178555611fd5565b82800160010185558215611fd5579182015b82811115611fd4578251825591602001919060010190611fb9565b5b509050611fe29190611fe6565b5090565b5b80821115611fff576000816000905550600101611fe7565b5090565b6000604051905090565b600080fd5b600080fd5b60007fffffffff0000000000000000000000000000000000000000000000000000000082169050919050565b61204c81612017565b811461205757600080fd5b50565b60008135905061206981612043565b92915050565b6000602082840312156120855761208461200d565b5b60006120938482850161205a565b91505092915050565b60008115159050919050565b6120b18161209c565b82525050565b60006020820190506120cc60008301846120a8565b92915050565b600081519050919050565b600082825260208201905092915050565b60005b8381101561210c5780820151818401526020810190506120f1565b8381111561211b576000848401525b50505050565b6000601f19601f8301169050919050565b600061213d826120d2565b61214781856120dd565b93506121578185602086016120ee565b61216081612121565b840191505092915050565b600060208201905081810360008301526121858184612132565b905092915050565b6000819050919050565b6121a08161218d565b81146121ab57600080fd5b50565b6000813590506121bd81612197565b92915050565b6000602082840312156121d9576121d861200d565b5b60006121e7848285016121ae565b91505092915050565b600073ffffffffffffffffffffffffffffffffffffffff82169050919050565b600061221b826121f0565b9050919050565b61222b81612210565b82525050565b60006020820190506122466000830184612222565b92915050565b61225581612210565b811461226057600080fd5b50565b6000813590506122728161224c565b92915050565b6000806040838503121561228f5761228e61200d565b5b600061229d85828601612263565b92505060206122ae858286016121ae565b9150509250929050565b6000806000606084860312156122d1576122d061200d565b5b60006122df86828701612263565b93505060206122f086828701612263565b9250506040612301868287016121ae565b9150509250925092565b6000602082840312156123215761232061200d565b5b600061232f84828501612263565b91505092915050565b600081519050919050565b600082825260208201905092915050565b6000819050602082019050919050565b61236d8161218d565b82525050565b600061237f8383612364565b60208301905092915050565b6000602082019050919050565b60006123a382612338565b6123ad8185612343565b93506123b883612354565b8060005b838110156123e95781516123d08882612373565b97506123db8361238b565b9250506001810190506123bc565b5085935050505092915050565b600060208201905081810360008301526124108184612398565b905092915050565b6124218161218d565b82525050565b600060208201905061243c6000830184612418565b92915050565b600081519050919050565b600082825260208201905092915050565b6000819050602082019050919050565b600082825260208201905092915050565b600061248a826120d2565b612494818561246e565b93506124a48185602086016120ee565b6124ad81612121565b840191505092915050565b600060ff82169050919050565b6124ce816124b8565b82525050565b600063ffffffff82169050919050565b6124ed816124d4565b82525050565b60006060830160008301518482036000860152612510828261247f565b915050602083015161252560208601826124c5565b50604083015161253860408601826124e4565b508091505092915050565b600061254f83836124f3565b905092915050565b6000602082019050919050565b600061256f82612442565b612579818561244d565b93508360208202850161258b8561245e565b8060005b858110156125c757848403895281516125a88582612543565b94506125b383612557565b925060208a0199505060018101905061258f565b50829750879550505050505092915050565b600060208201905081810360008301526125f38184612564565b905092915050565b600080fd5b600080fd5b7f4e487b7100000000000000000000000000000000000000000000000000000000600052604160045260246000fd5b61263d82612121565b810181811067ffffffffffffffff8211171561265c5761265b612605565b5b80604052505050565b600061266f612003565b905061267b8282612634565b919050565b600067ffffffffffffffff82111561269b5761269a612605565b5b6126a482612121565b9050602081019050919050565b82818337600083830152505050565b60006126d36126ce84612680565b612665565b9050828152602081018484840111156126ef576126ee612600565b5b6126fa8482856126b1565b509392505050565b600082601f830112612717576127166125fb565b5b81356127278482602086016126c0565b91505092915050565b6000806000806080858703121561274a5761274961200d565b5b600061275887828801612263565b945050602061276987828801612263565b935050604061277a878288016121ae565b925050606085013567ffffffffffffffff81111561279b5761279a612012565b5b6127a787828801612702565b91505092959194509250565b600080fd5b600080fd5b60008083601f8401126127d3576127d26125fb565b5b8235905067ffffffffffffffff8111156127f0576127ef6127b3565b5b60208301915083600182028301111561280c5761280b6127b8565b5b9250929050565b60008060006040848603121561282c5761282b61200d565b5b600061283a868287016121ae565b935050602084013567ffffffffffffffff81111561285b5761285a612012565b5b612867868287016127bd565b92509250509250925092565b60008060006040848603121561288c5761288b61200d565b5b600061289a86828701612263565b935050602084013567ffffffffffffffff8111156128bb576128ba612012565b5b6128c7868287016127bd565b92509250509250925092565b7f4e487b7100000000000000000000000000000000000000000000000000000000600052602260045260246000fd5b6000600282049050600182168061291a57607f821691505b6020821081141561292e5761292d6128d3565b5b50919050565b7f4552433732313a20617070726f76656420717565727920666f72206e6f6e657860008201527f697374656e7420746f6b656e0000000000000000000000000000000000000000602082015250565b6000612990602c836120dd565b915061299b82612934565b604082019050919050565b600060208201905081810360008301526129bf81612983565b9050919050565b7f4552433732313a20617070726f76616c20746f2063757272656e74206f776e6560008201527f7200000000000000000000000000000000000000000000000000000000000000602082015250565b6000612a226021836120dd565b9150612a2d826129c6565b604082019050919050565b60006020820190508181036000830152612a5181612a15565b9050919050565b7f4552433732313a20617070726f76652063616c6c6572206973206e6f74206f7760008201527f6e65720000000000000000000000000000000000000000000000000000000000602082015250565b6000612ab46023836120dd565b9150612abf82612a58565b604082019050919050565b60006020820190508181036000830152612ae381612aa7565b9050919050565b7f4e487b7100000000000000000000000000000000000000000000000000000000600052603260045260246000fd5b7f4e487b7100000000000000000000000000000000000000000000000000000000600052601160045260246000fd5b6000612b538261218d565b9150612b5e8361218d565b9250827fffffffffffffffffffffffffffffffffffffffffffffffffffffffffffffffff03821115612b9357612b92612b19565b5b828201905092915050565b6000612ba98261218d565b9150612bb48361218d565b9250817fffffffffffffffffffffffffffffffffffffffffffffffffffffffffffffffff0483118215151615612bed57612bec612b19565b5b828202905092915050565b7f45524337323150617961626c653a207468652070726f76696465642076616c7560008201527f65206973206e6f7420636f727265637400000000000000000000000000000000602082015250565b6000612c546030836120dd565b9150612c5f82612bf8565b604082019050919050565b60006020820190508181036000830152612c8381612c47565b9050919050565b7f4552433732313a207472616e736665722063616c6c6572206973206e6f74206160008201527f7070726f76656400000000000000000000000000000000000000000000000000602082015250565b6000612ce66027836120dd565b9150612cf182612c8a565b604082019050919050565b60006020820190508181036000830152612d1581612cd9565b9050919050565b6000612d278261218d565b91507fffffffffffffffffffffffffffffffffffffffffffffffffffffffffffffffff821415612d5a57612d59612b19565b5b600182019050919050565b7f4552433732313a206f776e657220717565727920666f72206e6f6e657869737460008201527f656e7420746f6b656e0000000000000000000000000000000000000000000000602082015250565b6000612dc16029836120dd565b9150612dcc82612d65565b604082019050919050565b60006020820190508181036000830152612df081612db4565b9050919050565b7f4552433732313a2062616c616e636520717565727920666f7220746865207a6560008201527f726f206164647265737300000000000000000000000000000000000000000000602082015250565b6000612e53602a836120dd565b9150612e5e82612df7565b604082019050919050565b60006020820190508181036000830152612e8281612e46565b9050919050565b7f4f776e61626c653a2063616c6c6572206973206e6f7420746865206f776e6572600082015250565b6000612ebf6020836120dd565b9150612eca82612e89565b602082019050919050565b60006020820190508181036000830152612eee81612eb2565b9050919050565b7f4552433732314d657461646174613a2055524920717565727920666f72206e6f60008201527f6e6578697374656e7420746f6b656e0000000000000000000000000000000000602082015250565b6000612f51602f836120dd565b9150612f5c82612ef5565b604082019050919050565b60006020820190508181036000830152612f8081612f44565b9050919050565b600081905092915050565b6000612f9d826120d2565b612fa78185612f87565b9350612fb78185602086016120ee565b80840191505092915050565b6000612fcf8285612f92565b9150612fdb8284612f92565b91508190509392505050565b6000612ff28261218d565b9150612ffd8361218d565b9250828210156130105761300f612b19565b5b828203905092915050565b600061302783856120dd565b93506130348385846126b1565b61303d83612121565b840190509392505050565b600060408201905061305d6000830186612418565b818103602083015261307081848661301b565b9050949350505050565b7f4f776e61626c653a206e6577206f776e657220697320746865207a65726f206160008201527f6464726573730000000000000000000000000000000000000000000000000000602082015250565b60006130d66026836120dd565b91506130e18261307a565b604082019050919050565b60006020820190508181036000830152613105816130c9565b9050919050565b7f4552433732313a207472616e73666572206f6620746f6b656e2074686174206960008201527f73206e6f74206f776e0000000000000000000000000000000000000000000000602082015250565b60006131686029836120dd565b91506131738261310c565b604082019050919050565b600060208201905081810360008301526131978161315b565b9050919050565b7f4552433732313a207472616e7366657220746f20746865207a65726f2061646460008201527f7265737300000000000000000000000000000000000000000000000000000000602082015250565b60006131fa6024836120dd565b91506132058261319e565b604082019050919050565b60006020820190508181036000830152613229816131ed565b9050919050565b7f4552433732313a206f70657261746f7220717565727920666f72206e6f6e657860008201527f697374656e7420746f6b656e0000000000000000000000000000000000000000602082015250565b600061328c602c836120dd565b915061329782613230565b604082019050919050565b600060208201905081810360008301526132bb8161327f565b9050919050565b7f4552433732313a207472616e7366657220746f206e6f6e20455243373231526560008201527f63656976657220696d706c656d656e7465720000000000000000000000000000602082015250565b600061331e6032836120dd565b9150613329826132c2565b604082019050919050565b6000602082019050818103600083015261334d81613311565b9050919050565b7f4e487b7100000000000000000000000000000000000000000000000000000000600052601260045260246000fd5b600061338e8261218d565b91506133998361218d565b9250826133a9576133a8613354565b5b828204905092915050565b60006133bf8261218d565b91506133ca8361218d565b9250826133da576133d9613354565b5b828206905092915050565b600081519050919050565b600082825260208201905092915050565b600061340c826133e5565b61341681856133f0565b93506134268185602086016120ee565b61342f81612121565b840191505092915050565b600060808201905061344f6000830187612222565b61345c6020830186612222565b6134696040830185612418565b818103606083015261347b8184613401565b905095945050505050565b60008151905061349581612043565b92915050565b6000602082840312156134b1576134b061200d565b5b60006134bf84828501613486565b91505092915050565b7f4552433732313a206d696e7420746f20746865207a65726f2061646472657373600082015250565b60006134fe6020836120dd565b9150613509826134c8565b602082019050919050565b6000602082019050818103600083015261352d816134f1565b9050919050565b7f4552433732313a20746f6b656e20616c7265616479206d696e74656400000000600082015250565b600061356a601c836120dd565b915061357582613534565b602082019050919050565b600060208201905081810360008301526135998161355d565b905091905056fea26469706673582212207d0daab5dab1d2ffea01868e812154b0258b6d40ae3eb3f2a9e754b5586f630864736f6c63430008090033",
  "immutableReferences": {},
  "source": "// SPDX-License-Identifier: MIT\npragma solidity ^0.8.2;\n\nimport \"@openzeppelin/contracts/access/Ownable.sol\";\nimport \"@openzeppelin/contracts/utils/Counters.sol\";\nimport \"./ERC721Payable.sol\";\n\n/// @custom:security-contact joel@oscillate.ch\ncontract OnescreenerHeroToken is Ownable, ERC721Payable {\n    using Counters for Counters.Counter;\n\n    event NewToken(uint256 tokenId, string domain);\n    event Reclaim(address indexed from, address indexed to, uint256 tokenId);\n\n    uint256 initialFee = 0.001 ether;\n    uint256 maxTokenCount = 100;\n    uint256 validityTimespan = 7 days;\n\n    struct OnescreenerHero {\n        string domain;\n        uint8 transferCount;\n        uint32 validUntil;\n    }\n\n    Counters.Counter private _tokenIdCounter;\n    OnescreenerHero[] private _tokens;\n\n    mapping(uint256 => address) public tokenToOwner;\n\n    constructor() ERC721Payable(\"OnescreenerHeroToken\", \"OHT\") {}\n\n    modifier onlyOwnerOf(uint256 tokenId) {\n        require(_msgSender() == ownerOf(tokenId));\n        _;\n    }\n\n    function _baseURI() internal pure override returns (string memory) {\n        return \"https://hero.onescreener.com\";\n    }\n\n    // function safeMint(address to) public onlyOwner {\n    //     _safeMint(to, _tokenIdCounter.current());\n    //     _tokenIdCounter.increment();\n    // }\n\n    // Only contract owner can create new token and link it to a onescreener\n    function mint(address to, string calldata domain) public onlyOwner {\n        require(_tokenIdCounter.current() < maxTokenCount);\n\n        uint32 validUntil = uint32(block.timestamp + validityTimespan);\n        _tokens.push(OnescreenerHero(domain, 0, validUntil));\n        uint256 tokenId = _tokens.length - 1;\n\n        _safeMint(to, tokenId);\n        _tokenIdCounter.increment();\n\n        emit NewToken(tokenId, domain);\n    }\n\n    // The owner needs to approve the transfer of the OHT token first\n    // Once approved, the new owner can claim the OHT token\n    function transferFrom(\n        address from,\n        address to,\n        uint256 tokenId\n    ) public payable override {\n        uint256 fee = (initialFee + _tokens[tokenId].transferCount) * (1 ether);\n\n        require(\n            msg.value == fee,\n            \"ERC721Payable: the provided value is not correct\"\n        );\n        require(\n            getApproved(tokenId) == _msgSender(),\n            \"ERC721: transfer caller is not approved\"\n        );\n\n        _transfer(from, to, tokenId);\n    }\n\n    // Re-claim approved token\n    function reclaim(address to, uint256 tokenId)\n        external\n        payable\n        onlyOwnerOf(tokenId)\n    {\n        require(getApproved(tokenId) == to);\n\n        approve(address(0), tokenId);\n\n        emit Reclaim(_msgSender(), to, tokenId);\n    }\n\n    function getTokens() external view returns (OnescreenerHero[] memory) {\n        return _tokens;\n    }\n\n    function getTokensByOwner(address _owner)\n        external\n        view\n        returns (uint256[] memory)\n    {\n        uint256[] memory result = new uint256[](balanceOf(_owner));\n        uint256 counter = 0;\n        for (uint256 i = 0; i < _tokenIdCounter.current(); i++) {\n            if (ownerOf(i) == _owner) {\n                result[counter] = i;\n                counter++;\n            }\n        }\n        return result;\n    }\n\n    function changeName(uint256 tokenId, string calldata domain)\n        external\n        onlyOwnerOf(tokenId)\n    {\n        _tokens[tokenId].domain = domain;\n    }\n}\n",
  "sourcePath": "/Users/Joel/Documents/Projects/truffle/onescreener-heros/contracts/OnescreenerHero/OnescreenerHeroToken.sol",
  "compiler": {
    "name": "solc",
    "version": "0.8.9+commit.e5eed63a.Emscripten.clang"
  },
  "schemaVersion": "3.4.3",
  "updatedAt": "2021-11-14T12:13:35.577Z",
  "networkType": "ethereum",
  "devdoc": {
    "custom:security-contact": "joel@oscillate.ch",
    "kind": "dev",
    "methods": {
      "approve(address,uint256)": {
        "details": "See {IERC721-approve}."
      },
      "balanceOf(address)": {
        "details": "See {IERC721-balanceOf}."
      },
      "getApproved(uint256)": {
        "details": "See {IERC721-getApproved}."
      },
      "name()": {
        "details": "See {IERC721Metadata-name}."
      },
      "owner()": {
        "details": "Returns the address of the current owner."
      },
      "ownerOf(uint256)": {
        "details": "See {IERC721-ownerOf}."
      },
      "renounceOwnership()": {
        "details": "Leaves the contract without owner. It will not be possible to call `onlyOwner` functions anymore. Can only be called by the current owner. NOTE: Renouncing ownership will leave the contract without an owner, thereby removing any functionality that is only available to the owner."
      },
      "safeTransferFrom(address,address,uint256)": {
        "details": "See {IERC721-safeTransferFrom}."
      },
      "safeTransferFrom(address,address,uint256,bytes)": {
        "details": "See {IERC721-safeTransferFrom}."
      },
      "supportsInterface(bytes4)": {
        "details": "See {IERC165-supportsInterface}."
      },
      "symbol()": {
        "details": "See {IERC721Metadata-symbol}."
      },
      "tokenURI(uint256)": {
        "details": "See {IERC721Metadata-tokenURI}."
      },
      "transferFrom(address,address,uint256)": {
        "details": "See {IERC721-transferFrom}."
      },
      "transferOwnership(address)": {
        "details": "Transfers ownership of the contract to a new account (`newOwner`). Can only be called by the current owner."
      }
    },
    "version": 1
  },
  "userdoc": {
    "kind": "user",
    "methods": {},
    "version": 1
  }
}