{
  "contractName": "OnescreenerHeroToken",
  "abi": [
    {
      "inputs": [],
      "stateMutability": "nonpayable",
      "type": "constructor"
    },
    {
      "anonymous": false,
      "inputs": [
        {
          "indexed": true,
          "internalType": "address",
          "name": "owner",
          "type": "address"
        },
        {
          "indexed": true,
          "internalType": "address",
          "name": "approved",
          "type": "address"
        },
        {
          "indexed": true,
          "internalType": "uint256",
          "name": "tokenId",
          "type": "uint256"
        }
      ],
      "name": "Approval",
      "type": "event"
    },
    {
      "anonymous": false,
      "inputs": [
        {
          "indexed": true,
          "internalType": "address",
          "name": "owner",
          "type": "address"
        },
        {
          "indexed": true,
          "internalType": "address",
          "name": "operator",
          "type": "address"
        },
        {
          "indexed": false,
          "internalType": "bool",
          "name": "approved",
          "type": "bool"
        }
      ],
      "name": "ApprovalForAll",
      "type": "event"
    },
    {
      "anonymous": false,
      "inputs": [
        {
          "indexed": false,
          "internalType": "uint256",
          "name": "tokenId",
          "type": "uint256"
        },
        {
          "indexed": false,
          "internalType": "string",
          "name": "domain",
          "type": "string"
        }
      ],
      "name": "NewToken",
      "type": "event"
    },
    {
      "anonymous": false,
      "inputs": [
        {
          "indexed": true,
          "internalType": "address",
          "name": "previousOwner",
          "type": "address"
        },
        {
          "indexed": true,
          "internalType": "address",
          "name": "newOwner",
          "type": "address"
        }
      ],
      "name": "OwnershipTransferred",
      "type": "event"
    },
    {
      "anonymous": false,
      "inputs": [
        {
          "indexed": false,
          "internalType": "uint256",
          "name": "tokenId",
          "type": "uint256"
        },
        {
          "indexed": false,
          "internalType": "uint256",
          "name": "price",
          "type": "uint256"
        }
      ],
      "name": "Price",
      "type": "event"
    },
    {
      "anonymous": false,
      "inputs": [
        {
          "indexed": true,
          "internalType": "address",
          "name": "from",
          "type": "address"
        },
        {
          "indexed": true,
          "internalType": "address",
          "name": "to",
          "type": "address"
        },
        {
          "indexed": false,
          "internalType": "uint256",
          "name": "tokenId",
          "type": "uint256"
        }
      ],
      "name": "ReclaimToken",
      "type": "event"
    },
    {
      "anonymous": false,
      "inputs": [
        {
          "indexed": true,
          "internalType": "address",
          "name": "from",
          "type": "address"
        },
        {
          "indexed": true,
          "internalType": "address",
          "name": "to",
          "type": "address"
        },
        {
          "indexed": true,
          "internalType": "uint256",
          "name": "tokenId",
          "type": "uint256"
        }
      ],
      "name": "Transfer",
      "type": "event"
    },
    {
      "anonymous": false,
      "inputs": [
        {
          "indexed": false,
          "internalType": "uint256",
          "name": "value",
          "type": "uint256"
        },
        {
          "indexed": false,
          "internalType": "uint256",
          "name": "price",
          "type": "uint256"
        }
      ],
      "name": "ValuePaid",
      "type": "event"
    },
    {
      "inputs": [
        {
          "internalType": "address",
          "name": "to",
          "type": "address"
        },
        {
          "internalType": "uint256",
          "name": "tokenId",
          "type": "uint256"
        }
      ],
      "name": "approve",
      "outputs": [],
      "stateMutability": "nonpayable",
      "type": "function"
    },
    {
      "inputs": [
        {
          "internalType": "address",
          "name": "owner",
          "type": "address"
        }
      ],
      "name": "balanceOf",
      "outputs": [
        {
          "internalType": "uint256",
          "name": "",
          "type": "uint256"
        }
      ],
      "stateMutability": "view",
      "type": "function"
    },
    {
      "inputs": [
        {
          "internalType": "uint256",
          "name": "tokenId",
          "type": "uint256"
        }
      ],
      "name": "getApproved",
      "outputs": [
        {
          "internalType": "address",
          "name": "",
          "type": "address"
        }
      ],
      "stateMutability": "view",
      "type": "function"
    },
    {
      "inputs": [],
      "name": "name",
      "outputs": [
        {
          "internalType": "string",
          "name": "",
          "type": "string"
        }
      ],
      "stateMutability": "view",
      "type": "function"
    },
    {
      "inputs": [],
      "name": "owner",
      "outputs": [
        {
          "internalType": "address",
          "name": "",
          "type": "address"
        }
      ],
      "stateMutability": "view",
      "type": "function"
    },
    {
      "inputs": [
        {
          "internalType": "uint256",
          "name": "tokenId",
          "type": "uint256"
        }
      ],
      "name": "ownerOf",
      "outputs": [
        {
          "internalType": "address",
          "name": "",
          "type": "address"
        }
      ],
      "stateMutability": "view",
      "type": "function"
    },
    {
      "inputs": [],
      "name": "renounceOwnership",
      "outputs": [],
      "stateMutability": "nonpayable",
      "type": "function"
    },
    {
      "inputs": [
        {
          "internalType": "address",
          "name": "from",
          "type": "address"
        },
        {
          "internalType": "address",
          "name": "to",
          "type": "address"
        },
        {
          "internalType": "uint256",
          "name": "tokenId",
          "type": "uint256"
        }
      ],
      "name": "safeTransferFrom",
      "outputs": [],
      "stateMutability": "payable",
      "type": "function"
    },
    {
      "inputs": [
        {
          "internalType": "address",
          "name": "from",
          "type": "address"
        },
        {
          "internalType": "address",
          "name": "to",
          "type": "address"
        },
        {
          "internalType": "uint256",
          "name": "tokenId",
          "type": "uint256"
        },
        {
          "internalType": "bytes",
          "name": "_data",
          "type": "bytes"
        }
      ],
      "name": "safeTransferFrom",
      "outputs": [],
      "stateMutability": "payable",
      "type": "function"
    },
    {
      "inputs": [
        {
          "internalType": "bytes4",
          "name": "interfaceId",
          "type": "bytes4"
        }
      ],
      "name": "supportsInterface",
      "outputs": [
        {
          "internalType": "bool",
          "name": "",
          "type": "bool"
        }
      ],
      "stateMutability": "view",
      "type": "function"
    },
    {
      "inputs": [],
      "name": "symbol",
      "outputs": [
        {
          "internalType": "string",
          "name": "",
          "type": "string"
        }
      ],
      "stateMutability": "view",
      "type": "function"
    },
    {
      "inputs": [
        {
          "internalType": "uint256",
          "name": "",
          "type": "uint256"
        }
      ],
      "name": "tokenToOwner",
      "outputs": [
        {
          "internalType": "address",
          "name": "",
          "type": "address"
        }
      ],
      "stateMutability": "view",
      "type": "function"
    },
    {
      "inputs": [
        {
          "internalType": "uint256",
          "name": "tokenId",
          "type": "uint256"
        }
      ],
      "name": "tokenURI",
      "outputs": [
        {
          "internalType": "string",
          "name": "",
          "type": "string"
        }
      ],
      "stateMutability": "view",
      "type": "function"
    },
    {
      "inputs": [
        {
          "internalType": "address",
          "name": "newOwner",
          "type": "address"
        }
      ],
      "name": "transferOwnership",
      "outputs": [],
      "stateMutability": "nonpayable",
      "type": "function"
    },
    {
      "inputs": [
        {
          "internalType": "string",
          "name": "domain",
          "type": "string"
        }
      ],
      "name": "mint",
      "outputs": [],
      "stateMutability": "nonpayable",
      "type": "function"
    },
    {
      "inputs": [
        {
          "internalType": "address",
          "name": "from",
          "type": "address"
        },
        {
          "internalType": "address",
          "name": "to",
          "type": "address"
        },
        {
          "internalType": "uint256",
          "name": "tokenId",
          "type": "uint256"
        }
      ],
      "name": "transferFrom",
      "outputs": [],
      "stateMutability": "payable",
      "type": "function"
    },
    {
      "inputs": [
        {
          "internalType": "address",
          "name": "to",
          "type": "address"
        },
        {
          "internalType": "uint256",
          "name": "tokenId",
          "type": "uint256"
        }
      ],
      "name": "reclaim",
      "outputs": [],
      "stateMutability": "payable",
      "type": "function"
    },
    {
      "inputs": [],
      "name": "getTokens",
      "outputs": [
        {
          "components": [
            {
              "internalType": "string",
              "name": "domain",
              "type": "string"
            },
            {
              "internalType": "uint8",
              "name": "transferCount",
              "type": "uint8"
            },
            {
              "internalType": "uint32",
              "name": "validUntil",
              "type": "uint32"
            }
          ],
          "internalType": "struct OnescreenerHeroToken.OnescreenerHero[]",
          "name": "",
          "type": "tuple[]"
        }
      ],
      "stateMutability": "view",
      "type": "function"
    },
    {
      "inputs": [
        {
          "internalType": "address",
          "name": "_owner",
          "type": "address"
        }
      ],
      "name": "getTokensByOwner",
      "outputs": [
        {
          "internalType": "uint256[]",
          "name": "",
          "type": "uint256[]"
        }
      ],
      "stateMutability": "view",
      "type": "function"
    },
    {
      "inputs": [
        {
          "internalType": "address",
          "name": "owner",
          "type": "address"
        }
      ],
      "name": "getApprovedTokenForOwner",
      "outputs": [
        {
          "internalType": "uint256",
          "name": "",
          "type": "uint256"
        }
      ],
      "stateMutability": "view",
      "type": "function"
    },
    {
      "inputs": [
        {
          "internalType": "string",
          "name": "domain",
          "type": "string"
        }
      ],
      "name": "getTokenOfDomain",
      "outputs": [
        {
          "internalType": "bool",
          "name": "exists",
          "type": "bool"
        },
        {
          "internalType": "uint256",
          "name": "tokenId",
          "type": "uint256"
        }
      ],
      "stateMutability": "view",
      "type": "function"
    },
    {
      "inputs": [
        {
          "internalType": "uint256",
          "name": "tokenId",
          "type": "uint256"
        },
        {
          "internalType": "string",
          "name": "domain",
          "type": "string"
        }
      ],
      "name": "changeDomain",
      "outputs": [],
      "stateMutability": "nonpayable",
      "type": "function"
    }
  ],
  "bytecode": "0x608060405266038d7ea4c68000600755606460085562093a806009553480156200002857600080fd5b506040518060400160405280601481526020017f4f6e6573637265656e65724865726f546f6b656e0000000000000000000000008152506040518060400160405280600381526020017f4f48540000000000000000000000000000000000000000000000000000000000815250620000b5620000a9620000ef60201b60201c565b620000f760201b60201c565b8160019080519060200190620000cd929190620001bb565b508060029080519060200190620000e6929190620001bb565b505050620002d0565b600033905090565b60008060009054906101000a900473ffffffffffffffffffffffffffffffffffffffff169050816000806101000a81548173ffffffffffffffffffffffffffffffffffffffff021916908373ffffffffffffffffffffffffffffffffffffffff1602179055508173ffffffffffffffffffffffffffffffffffffffff168173ffffffffffffffffffffffffffffffffffffffff167f8be0079c531659141344cd1fd0a4f28419497f9722a3daafe3b4186f6b6457e060405160405180910390a35050565b828054620001c9906200029a565b90600052602060002090601f016020900481019282620001ed576000855562000239565b82601f106200020857805160ff191683800117855562000239565b8280016001018555821562000239579182015b82811115620002385782518255916020019190600101906200021b565b5b5090506200024891906200024c565b5090565b5b80821115620002675760008160009055506001016200024d565b5090565b7f4e487b7100000000000000000000000000000000000000000000000000000000600052602260045260246000fd5b60006002820490506001821680620002b357607f821691505b60208210811415620002ca57620002c96200026b565b5b50919050565b613bdd80620002e06000396000f3fe6080604052600436106101355760003560e01c806382cb983f116100ab578063aa6ca8081161006f578063aa6ca80814610424578063b88d4fde1461044f578063c87b56dd1461046b578063cc0b2c9f146104a8578063d85d3d27146104e5578063f2fde38b1461050e57610135565b806382cb983f1461034b5780638bd317eb146103745780638da5cb5b1461039057806395d89b41146103bb578063a05ce16f146103e657610135565b806323b872dd116100fd57806323b872dd1461024557806340398d671461026157806342842e0e1461029e5780636352211e146102ba57806370a08231146102f7578063715018a61461033457610135565b806301ffc9a71461013a57806306fdde0314610177578063081812fc146101a2578063095ea7b3146101df5780630f313a4a14610208575b600080fd5b34801561014657600080fd5b50610161600480360381019061015c9190612454565b610537565b60405161016e919061249c565b60405180910390f35b34801561018357600080fd5b5061018c610619565b6040516101999190612550565b60405180910390f35b3480156101ae57600080fd5b506101c960048036038101906101c491906125a8565b6106ab565b6040516101d69190612616565b60405180910390f35b3480156101eb57600080fd5b506102066004803603810190610201919061265d565b610730565b005b34801561021457600080fd5b5061022f600480360381019061022a919061269d565b610830565b60405161023c91906126d9565b60405180910390f35b61025f600480360381019061025a91906126f4565b6108d4565b005b34801561026d57600080fd5b506102886004803603810190610283919061269d565b610a06565b6040516102959190612805565b60405180910390f35b6102b860048036038101906102b391906126f4565b610afb565b005b3480156102c657600080fd5b506102e160048036038101906102dc91906125a8565b610b1b565b6040516102ee9190612616565b60405180910390f35b34801561030357600080fd5b5061031e6004803603810190610319919061269d565b610bcd565b60405161032b91906126d9565b60405180910390f35b34801561034057600080fd5b50610349610c85565b005b34801561035757600080fd5b50610372600480360381019061036d919061288c565b610d0d565b005b61038e6004803603810190610389919061265d565b610d90565b005b34801561039c57600080fd5b506103a5610e94565b6040516103b29190612616565b60405180910390f35b3480156103c757600080fd5b506103d0610ebd565b6040516103dd9190612550565b60405180910390f35b3480156103f257600080fd5b5061040d60048036038101906104089190612a1c565b610f4f565b60405161041b929190612a65565b60405180910390f35b34801561043057600080fd5b50610439611057565b6040516104469190612c25565b60405180910390f35b61046960048036038101906104649190612ce8565b61118b565b005b34801561047757600080fd5b50610492600480360381019061048d91906125a8565b6111ed565b60405161049f9190612550565b60405180910390f35b3480156104b457600080fd5b506104cf60048036038101906104ca91906125a8565b611294565b6040516104dc9190612616565b60405180910390f35b3480156104f157600080fd5b5061050c60048036038101906105079190612d6b565b6112c7565b005b34801561051a57600080fd5b506105356004803603810190610530919061269d565b6115a6565b005b60007fcb05056d000000000000000000000000000000000000000000000000000000007bffffffffffffffffffffffffffffffffffffffffffffffffffffffff1916827bffffffffffffffffffffffffffffffffffffffffffffffffffffffff1916148061060257507f5b5e139f000000000000000000000000000000000000000000000000000000007bffffffffffffffffffffffffffffffffffffffffffffffffffffffff1916827bffffffffffffffffffffffffffffffffffffffffffffffffffffffff1916145b8061061257506106118261169e565b5b9050919050565b60606001805461062890612de7565b80601f016020809104026020016040519081016040528092919081815260200182805461065490612de7565b80156106a15780601f10610676576101008083540402835291602001916106a1565b820191906000526020600020905b81548152906001019060200180831161068457829003601f168201915b5050505050905090565b60006106b682611708565b6106f5576040517f08c379a00000000000000000000000000000000000000000000000000000000081526004016106ec90612e8b565b60405180910390fd5b6005600083815260200190815260200160002060009054906101000a900473ffffffffffffffffffffffffffffffffffffffff169050919050565b600061073b82610b1b565b90508073ffffffffffffffffffffffffffffffffffffffff168373ffffffffffffffffffffffffffffffffffffffff1614156107ac576040517f08c379a00000000000000000000000000000000000000000000000000000000081526004016107a390612f1d565b60405180910390fd5b8073ffffffffffffffffffffffffffffffffffffffff166107cb611774565b73ffffffffffffffffffffffffffffffffffffffff1614610821576040517f08c379a000000000000000000000000000000000000000000000000000000000815260040161081890612faf565b60405180910390fd5b61082b838361177c565b505050565b60008061270f905060005b610845600a611835565b8110156108ca578373ffffffffffffffffffffffffffffffffffffffff166005600083815260200190815260200160002060009054906101000a900473ffffffffffffffffffffffffffffffffffffffff1673ffffffffffffffffffffffffffffffffffffffff1614156108b7578091505b80806108c290612ffe565b91505061083b565b5080915050919050565b6108dd81611843565b34101561091f576040517f08c379a0000000000000000000000000000000000000000000000000000000008152600401610916906130b9565b60405180910390fd5b610927611774565b73ffffffffffffffffffffffffffffffffffffffff16610946826106ab565b73ffffffffffffffffffffffffffffffffffffffff161461099c576040517f08c379a00000000000000000000000000000000000000000000000000000000081526004016109939061314b565b60405180910390fd5b6109a78383836118b7565b6001600b82815481106109bd576109bc61316b565b5b906000526020600020906002020160010160008282829054906101000a900460ff166109e9919061319a565b92506101000a81548160ff021916908360ff160217905550505050565b60606000610a1383610bcd565b67ffffffffffffffff811115610a2c57610a2b6128f1565b5b604051908082528060200260200182016040528015610a5a5781602001602082028036833780820191505090505b5090506000805b610a6b600a611835565b811015610af0578473ffffffffffffffffffffffffffffffffffffffff16610a9282610b1b565b73ffffffffffffffffffffffffffffffffffffffff161415610add5780838381518110610ac257610ac161316b565b5b6020026020010181815250508180610ad990612ffe565b9250505b8080610ae890612ffe565b915050610a61565b508192505050919050565b610b168383836040518060200160405280600081525061118b565b505050565b6000806003600084815260200190815260200160002060009054906101000a900473ffffffffffffffffffffffffffffffffffffffff169050600073ffffffffffffffffffffffffffffffffffffffff168173ffffffffffffffffffffffffffffffffffffffff161415610bc4576040517f08c379a0000000000000000000000000000000000000000000000000000000008152600401610bbb90613243565b60405180910390fd5b80915050919050565b60008073ffffffffffffffffffffffffffffffffffffffff168273ffffffffffffffffffffffffffffffffffffffff161415610c3e576040517f08c379a0000000000000000000000000000000000000000000000000000000008152600401610c35906132d5565b60405180910390fd5b600460008373ffffffffffffffffffffffffffffffffffffffff1673ffffffffffffffffffffffffffffffffffffffff168152602001908152602001600020549050919050565b610c8d611774565b73ffffffffffffffffffffffffffffffffffffffff16610cab610e94565b73ffffffffffffffffffffffffffffffffffffffff1614610d01576040517f08c379a0000000000000000000000000000000000000000000000000000000008152600401610cf890613341565b60405180910390fd5b610d0b6000611b13565b565b82610d1781610b1b565b73ffffffffffffffffffffffffffffffffffffffff16610d35611774565b73ffffffffffffffffffffffffffffffffffffffff1614610d5557600080fd5b8282600b8681548110610d6b57610d6a61316b565b5b90600052602060002090600202016000019190610d899291906122bf565b5050505050565b80610d9a81610b1b565b73ffffffffffffffffffffffffffffffffffffffff16610db8611774565b73ffffffffffffffffffffffffffffffffffffffff1614610dd857600080fd5b8273ffffffffffffffffffffffffffffffffffffffff16610df8836106ab565b73ffffffffffffffffffffffffffffffffffffffff1614610e1857600080fd5b610e23600083610730565b8273ffffffffffffffffffffffffffffffffffffffff16610e42611774565b73ffffffffffffffffffffffffffffffffffffffff167fc016730911d66378b481a7db6a27b66ee03f202be57a4ba7f7a839b6f2f45f3b84604051610e8791906126d9565b60405180910390a3505050565b60008060009054906101000a900473ffffffffffffffffffffffffffffffffffffffff16905090565b606060028054610ecc90612de7565b80601f0160208091040260200160405190810160405280929190818152602001828054610ef890612de7565b8015610f455780601f10610f1a57610100808354040283529160200191610f45565b820191906000526020600020905b815481529060010190602001808311610f2857829003601f168201915b5050505050905090565b60008060005b610f5f600a611835565b811015611049576000600b8281548110610f7c57610f7b61316b565b5b9060005260206000209060020201905061102285826000018054610f9f90612de7565b80601f0160208091040260200160405190810160405280929190818152602001828054610fcb90612de7565b80156110185780601f10610fed57610100808354040283529160200191611018565b820191906000526020600020905b815481529060010190602001808311610ffb57829003601f168201915b5050505050611bd7565b1561103557600182935093505050611052565b50808061104190612ffe565b915050610f55565b50600080915091505b915091565b6060600b805480602002602001604051908101604052809291908181526020016000905b8282101561118257838290600052602060002090600202016040518060600160405290816000820180546110ae90612de7565b80601f01602080910402602001604051908101604052809291908181526020018280546110da90612de7565b80156111275780601f106110fc57610100808354040283529160200191611127565b820191906000526020600020905b81548152906001019060200180831161110a57829003601f168201915b505050505081526020016001820160009054906101000a900460ff1660ff1660ff1681526020016001820160019054906101000a900463ffffffff1663ffffffff1663ffffffff16815250508152602001906001019061107b565b50505050905090565b61119c611196611774565b83611c30565b6111db576040517f08c379a00000000000000000000000000000000000000000000000000000000081526004016111d29061314b565b60405180910390fd5b6111e784848484611cb9565b50505050565b60606111f882611708565b611237576040517f08c379a000000000000000000000000000000000000000000000000000000000815260040161122e906133d3565b60405180910390fd5b6000611241611d15565b90506000815111611261576040518060200160405280600081525061128c565b8061126b84611d52565b60405160200161127c92919061342f565b6040516020818303038152906040525b915050919050565b600c6020528060005260406000206000915054906101000a900473ffffffffffffffffffffffffffffffffffffffff1681565b6112cf611774565b73ffffffffffffffffffffffffffffffffffffffff166112ed610e94565b73ffffffffffffffffffffffffffffffffffffffff1614611343576040517f08c379a000000000000000000000000000000000000000000000000000000000815260040161133a90613341565b60405180910390fd5b600854611350600a611835565b10611390576040517f08c379a00000000000000000000000000000000000000000000000000000000081526004016113879061349f565b60405180910390fd5b6000806113e084848080601f016020809104026020016040519081016040528093929190818152602001838380828437600081840152601f19601f82011690508083019250505050505050610f4f565b915091508115611425576040517f08c379a000000000000000000000000000000000000000000000000000000000815260040161141c9061350b565b60405180910390fd5b600060095442611435919061352b565b9050600b604051806060016040528087878080601f016020809104026020016040519081016040528093929190818152602001838380828437600081840152601f19601f820116905080830192505050505050508152602001600060ff1681526020018363ffffffff16815250908060018154018082558091505060019003906000526020600020906002020160009091909190915060008201518160000190805190602001906114e7929190612345565b5060208201518160010160006101000a81548160ff021916908360ff16021790555060408201518160010160016101000a81548163ffffffff021916908363ffffffff160217905550505060006001600b805490506115469190613581565b9050611559611553611774565b82611eb3565b611563600a611ed1565b7fca8605e5b2854022d4ef7e920a48b0c49ca69a8453970d922c3dd8b93057fa67818787604051611596939291906135e2565b60405180910390a1505050505050565b6115ae611774565b73ffffffffffffffffffffffffffffffffffffffff166115cc610e94565b73ffffffffffffffffffffffffffffffffffffffff1614611622576040517f08c379a000000000000000000000000000000000000000000000000000000000815260040161161990613341565b60405180910390fd5b600073ffffffffffffffffffffffffffffffffffffffff168173ffffffffffffffffffffffffffffffffffffffff161415611692576040517f08c379a000000000000000000000000000000000000000000000000000000000815260040161168990613686565b60405180910390fd5b61169b81611b13565b50565b60007f01ffc9a7000000000000000000000000000000000000000000000000000000007bffffffffffffffffffffffffffffffffffffffffffffffffffffffff1916827bffffffffffffffffffffffffffffffffffffffffffffffffffffffff1916149050919050565b60008073ffffffffffffffffffffffffffffffffffffffff166003600084815260200190815260200160002060009054906101000a900473ffffffffffffffffffffffffffffffffffffffff1673ffffffffffffffffffffffffffffffffffffffff1614159050919050565b600033905090565b816005600083815260200190815260200160002060006101000a81548173ffffffffffffffffffffffffffffffffffffffff021916908373ffffffffffffffffffffffffffffffffffffffff160217905550808273ffffffffffffffffffffffffffffffffffffffff166117ef83610b1b565b73ffffffffffffffffffffffffffffffffffffffff167f8c5be1e5ebec7d5bd14f71427d1e84f3dd0314c0f7b2291e5b200ac8c7c3b92560405160405180910390a45050565b600081600001549050919050565b600080670de0b6b3a7640000600b84815481106118635761186261316b565b5b906000526020600020906002020160010160009054906101000a900460ff1660ff1661188f91906136ba565b67ffffffffffffffff1690506000816007546118ab919061352b565b90508092505050919050565b8273ffffffffffffffffffffffffffffffffffffffff166118d782610b1b565b73ffffffffffffffffffffffffffffffffffffffff161461192d576040517f08c379a00000000000000000000000000000000000000000000000000000000081526004016119249061376e565b60405180910390fd5b600073ffffffffffffffffffffffffffffffffffffffff168273ffffffffffffffffffffffffffffffffffffffff16141561199d576040517f08c379a000000000000000000000000000000000000000000000000000000000815260040161199490613800565b60405180910390fd5b6119a8838383611ee7565b6119b360008261177c565b6001600460008573ffffffffffffffffffffffffffffffffffffffff1673ffffffffffffffffffffffffffffffffffffffff1681526020019081526020016000206000828254611a039190613581565b925050819055506001600460008473ffffffffffffffffffffffffffffffffffffffff1673ffffffffffffffffffffffffffffffffffffffff1681526020019081526020016000206000828254611a5a919061352b565b92505081905550816003600083815260200190815260200160002060006101000a81548173ffffffffffffffffffffffffffffffffffffffff021916908373ffffffffffffffffffffffffffffffffffffffff160217905550808273ffffffffffffffffffffffffffffffffffffffff168473ffffffffffffffffffffffffffffffffffffffff167fddf252ad1be2c89b69c2b068fc378daa952ba7f163c4a11628f55a4df523b3ef60405160405180910390a4505050565b60008060009054906101000a900473ffffffffffffffffffffffffffffffffffffffff169050816000806101000a81548173ffffffffffffffffffffffffffffffffffffffff021916908373ffffffffffffffffffffffffffffffffffffffff1602179055508173ffffffffffffffffffffffffffffffffffffffff168173ffffffffffffffffffffffffffffffffffffffff167f8be0079c531659141344cd1fd0a4f28419497f9722a3daafe3b4186f6b6457e060405160405180910390a35050565b600081604051602001611bea9190613820565b6040516020818303038152906040528051906020012083604051602001611c119190613820565b6040516020818303038152906040528051906020012014905092915050565b6000611c3b82611708565b611c7a576040517f08c379a0000000000000000000000000000000000000000000000000000000008152600401611c71906138a9565b60405180910390fd5b8273ffffffffffffffffffffffffffffffffffffffff16611c9a836106ab565b73ffffffffffffffffffffffffffffffffffffffff1614905092915050565b611cc48484846118b7565b611cd084848484611eec565b611d0f576040517f08c379a0000000000000000000000000000000000000000000000000000000008152600401611d069061393b565b60405180910390fd5b50505050565b60606040518060400160405280601c81526020017f68747470733a2f2f6865726f2e6f6e6573637265656e65722e636f6d00000000815250905090565b60606000821415611d9a576040518060400160405280600181526020017f30000000000000000000000000000000000000000000000000000000000000008152509050611eae565b600082905060005b60008214611dcc578080611db590612ffe565b915050600a82611dc5919061398a565b9150611da2565b60008167ffffffffffffffff811115611de857611de76128f1565b5b6040519080825280601f01601f191660200182016040528015611e1a5781602001600182028036833780820191505090505b5090505b60008514611ea757600182611e339190613581565b9150600a85611e4291906139bb565b6030611e4e919061352b565b60f81b818381518110611e6457611e6361316b565b5b60200101907effffffffffffffffffffffffffffffffffffffffffffffffffffffffffffff1916908160001a905350600a85611ea0919061398a565b9450611e1e565b8093505050505b919050565b611ecd828260405180602001604052806000815250612083565b5050565b6001816000016000828254019250508190555050565b505050565b6000611f0d8473ffffffffffffffffffffffffffffffffffffffff166120de565b15612076578373ffffffffffffffffffffffffffffffffffffffff1663150b7a02611f36611774565b8786866040518563ffffffff1660e01b8152600401611f589493929190613a41565b602060405180830381600087803b158015611f7257600080fd5b505af1925050508015611fa357506040513d601f19601f82011682018060405250810190611fa09190613aa2565b60015b612026573d8060008114611fd3576040519150601f19603f3d011682016040523d82523d6000602084013e611fd8565b606091505b5060008151141561201e576040517f08c379a00000000000000000000000000000000000000000000000000000000081526004016120159061393b565b60405180910390fd5b805181602001fd5b63150b7a0260e01b7bffffffffffffffffffffffffffffffffffffffffffffffffffffffff1916817bffffffffffffffffffffffffffffffffffffffffffffffffffffffff19161491505061207b565b600190505b949350505050565b61208d83836120f1565b61209a6000848484611eec565b6120d9576040517f08c379a00000000000000000000000000000000000000000000000000000000081526004016120d09061393b565b60405180910390fd5b505050565b600080823b905060008111915050919050565b600073ffffffffffffffffffffffffffffffffffffffff168273ffffffffffffffffffffffffffffffffffffffff161415612161576040517f08c379a000000000000000000000000000000000000000000000000000000000815260040161215890613b1b565b60405180910390fd5b61216a81611708565b156121aa576040517f08c379a00000000000000000000000000000000000000000000000000000000081526004016121a190613b87565b60405180910390fd5b6121b660008383611ee7565b6001600460008473ffffffffffffffffffffffffffffffffffffffff1673ffffffffffffffffffffffffffffffffffffffff1681526020019081526020016000206000828254612206919061352b565b92505081905550816003600083815260200190815260200160002060006101000a81548173ffffffffffffffffffffffffffffffffffffffff021916908373ffffffffffffffffffffffffffffffffffffffff160217905550808273ffffffffffffffffffffffffffffffffffffffff16600073ffffffffffffffffffffffffffffffffffffffff167fddf252ad1be2c89b69c2b068fc378daa952ba7f163c4a11628f55a4df523b3ef60405160405180910390a45050565b8280546122cb90612de7565b90600052602060002090601f0160209004810192826122ed5760008555612334565b82601f1061230657803560ff1916838001178555612334565b82800160010185558215612334579182015b82811115612333578235825591602001919060010190612318565b5b50905061234191906123cb565b5090565b82805461235190612de7565b90600052602060002090601f01602090048101928261237357600085556123ba565b82601f1061238c57805160ff19168380011785556123ba565b828001600101855582156123ba579182015b828111156123b957825182559160200191906001019061239e565b5b5090506123c791906123cb565b5090565b5b808211156123e45760008160009055506001016123cc565b5090565b6000604051905090565b600080fd5b600080fd5b60007fffffffff0000000000000000000000000000000000000000000000000000000082169050919050565b612431816123fc565b811461243c57600080fd5b50565b60008135905061244e81612428565b92915050565b60006020828403121561246a576124696123f2565b5b60006124788482850161243f565b91505092915050565b60008115159050919050565b61249681612481565b82525050565b60006020820190506124b1600083018461248d565b92915050565b600081519050919050565b600082825260208201905092915050565b60005b838110156124f15780820151818401526020810190506124d6565b83811115612500576000848401525b50505050565b6000601f19601f8301169050919050565b6000612522826124b7565b61252c81856124c2565b935061253c8185602086016124d3565b61254581612506565b840191505092915050565b6000602082019050818103600083015261256a8184612517565b905092915050565b6000819050919050565b61258581612572565b811461259057600080fd5b50565b6000813590506125a28161257c565b92915050565b6000602082840312156125be576125bd6123f2565b5b60006125cc84828501612593565b91505092915050565b600073ffffffffffffffffffffffffffffffffffffffff82169050919050565b6000612600826125d5565b9050919050565b612610816125f5565b82525050565b600060208201905061262b6000830184612607565b92915050565b61263a816125f5565b811461264557600080fd5b50565b60008135905061265781612631565b92915050565b60008060408385031215612674576126736123f2565b5b600061268285828601612648565b925050602061269385828601612593565b9150509250929050565b6000602082840312156126b3576126b26123f2565b5b60006126c184828501612648565b91505092915050565b6126d381612572565b82525050565b60006020820190506126ee60008301846126ca565b92915050565b60008060006060848603121561270d5761270c6123f2565b5b600061271b86828701612648565b935050602061272c86828701612648565b925050604061273d86828701612593565b9150509250925092565b600081519050919050565b600082825260208201905092915050565b6000819050602082019050919050565b61277c81612572565b82525050565b600061278e8383612773565b60208301905092915050565b6000602082019050919050565b60006127b282612747565b6127bc8185612752565b93506127c783612763565b8060005b838110156127f85781516127df8882612782565b97506127ea8361279a565b9250506001810190506127cb565b5085935050505092915050565b6000602082019050818103600083015261281f81846127a7565b905092915050565b600080fd5b600080fd5b600080fd5b60008083601f84011261284c5761284b612827565b5b8235905067ffffffffffffffff8111156128695761286861282c565b5b60208301915083600182028301111561288557612884612831565b5b9250929050565b6000806000604084860312156128a5576128a46123f2565b5b60006128b386828701612593565b935050602084013567ffffffffffffffff8111156128d4576128d36123f7565b5b6128e086828701612836565b92509250509250925092565b600080fd5b7f4e487b7100000000000000000000000000000000000000000000000000000000600052604160045260246000fd5b61292982612506565b810181811067ffffffffffffffff82111715612948576129476128f1565b5b80604052505050565b600061295b6123e8565b90506129678282612920565b919050565b600067ffffffffffffffff821115612987576129866128f1565b5b61299082612506565b9050602081019050919050565b82818337600083830152505050565b60006129bf6129ba8461296c565b612951565b9050828152602081018484840111156129db576129da6128ec565b5b6129e684828561299d565b509392505050565b600082601f830112612a0357612a02612827565b5b8135612a138482602086016129ac565b91505092915050565b600060208284031215612a3257612a316123f2565b5b600082013567ffffffffffffffff811115612a5057612a4f6123f7565b5b612a5c848285016129ee565b91505092915050565b6000604082019050612a7a600083018561248d565b612a8760208301846126ca565b9392505050565b600081519050919050565b600082825260208201905092915050565b6000819050602082019050919050565b600082825260208201905092915050565b6000612ad6826124b7565b612ae08185612aba565b9350612af08185602086016124d3565b612af981612506565b840191505092915050565b600060ff82169050919050565b612b1a81612b04565b82525050565b600063ffffffff82169050919050565b612b3981612b20565b82525050565b60006060830160008301518482036000860152612b5c8282612acb565b9150506020830151612b716020860182612b11565b506040830151612b846040860182612b30565b508091505092915050565b6000612b9b8383612b3f565b905092915050565b6000602082019050919050565b6000612bbb82612a8e565b612bc58185612a99565b935083602082028501612bd785612aaa565b8060005b85811015612c135784840389528151612bf48582612b8f565b9450612bff83612ba3565b925060208a01995050600181019050612bdb565b50829750879550505050505092915050565b60006020820190508181036000830152612c3f8184612bb0565b905092915050565b600067ffffffffffffffff821115612c6257612c616128f1565b5b612c6b82612506565b9050602081019050919050565b6000612c8b612c8684612c47565b612951565b905082815260208101848484011115612ca757612ca66128ec565b5b612cb284828561299d565b509392505050565b600082601f830112612ccf57612cce612827565b5b8135612cdf848260208601612c78565b91505092915050565b60008060008060808587031215612d0257612d016123f2565b5b6000612d1087828801612648565b9450506020612d2187828801612648565b9350506040612d3287828801612593565b925050606085013567ffffffffffffffff811115612d5357612d526123f7565b5b612d5f87828801612cba565b91505092959194509250565b60008060208385031215612d8257612d816123f2565b5b600083013567ffffffffffffffff811115612da057612d9f6123f7565b5b612dac85828601612836565b92509250509250929050565b7f4e487b7100000000000000000000000000000000000000000000000000000000600052602260045260246000fd5b60006002820490506001821680612dff57607f821691505b60208210811415612e1357612e12612db8565b5b50919050565b7f4552433732313a20617070726f76656420717565727920666f72206e6f6e657860008201527f697374656e7420746f6b656e0000000000000000000000000000000000000000602082015250565b6000612e75602c836124c2565b9150612e8082612e19565b604082019050919050565b60006020820190508181036000830152612ea481612e68565b9050919050565b7f4552433732313a20617070726f76616c20746f2063757272656e74206f776e6560008201527f7200000000000000000000000000000000000000000000000000000000000000602082015250565b6000612f076021836124c2565b9150612f1282612eab565b604082019050919050565b60006020820190508181036000830152612f3681612efa565b9050919050565b7f4552433732313a20617070726f76652063616c6c6572206973206e6f74206f7760008201527f6e65720000000000000000000000000000000000000000000000000000000000602082015250565b6000612f996023836124c2565b9150612fa482612f3d565b604082019050919050565b60006020820190508181036000830152612fc881612f8c565b9050919050565b7f4e487b7100000000000000000000000000000000000000000000000000000000600052601160045260246000fd5b600061300982612572565b91507fffffffffffffffffffffffffffffffffffffffffffffffffffffffffffffffff82141561303c5761303b612fcf565b5b600182019050919050565b7f45524337323150617961626c653a207468652070726f76696465642076616c7560008201527f65206973206c6f776572207468616e2074686520707269636520000000000000602082015250565b60006130a3603a836124c2565b91506130ae82613047565b604082019050919050565b600060208201905081810360008301526130d281613096565b9050919050565b7f4552433732313a207472616e736665722063616c6c6572206973206e6f74206160008201527f7070726f76656400000000000000000000000000000000000000000000000000602082015250565b60006131356027836124c2565b9150613140826130d9565b604082019050919050565b6000602082019050818103600083015261316481613128565b9050919050565b7f4e487b7100000000000000000000000000000000000000000000000000000000600052603260045260246000fd5b60006131a582612b04565b91506131b083612b04565b92508260ff038211156131c6576131c5612fcf565b5b828201905092915050565b7f4552433732313a206f776e657220717565727920666f72206e6f6e657869737460008201527f656e7420746f6b656e0000000000000000000000000000000000000000000000602082015250565b600061322d6029836124c2565b9150613238826131d1565b604082019050919050565b6000602082019050818103600083015261325c81613220565b9050919050565b7f4552433732313a2062616c616e636520717565727920666f7220746865207a6560008201527f726f206164647265737300000000000000000000000000000000000000000000602082015250565b60006132bf602a836124c2565b91506132ca82613263565b604082019050919050565b600060208201905081810360008301526132ee816132b2565b9050919050565b7f4f776e61626c653a2063616c6c6572206973206e6f7420746865206f776e6572600082015250565b600061332b6020836124c2565b9150613336826132f5565b602082019050919050565b6000602082019050818103600083015261335a8161331e565b9050919050565b7f4552433732314d657461646174613a2055524920717565727920666f72206e6f60008201527f6e6578697374656e7420746f6b656e0000000000000000000000000000000000602082015250565b60006133bd602f836124c2565b91506133c882613361565b604082019050919050565b600060208201905081810360008301526133ec816133b0565b9050919050565b600081905092915050565b6000613409826124b7565b61341381856133f3565b93506134238185602086016124d3565b80840191505092915050565b600061343b82856133fe565b915061344782846133fe565b91508190509392505050565b7f4d6178696d756d206f662031303020746f6b656e732072656163686564000000600082015250565b6000613489601d836124c2565b915061349482613453565b602082019050919050565b600060208201905081810360008301526134b88161347c565b9050919050565b7f446f6d61696e2065786973747320616c72656164790000000000000000000000600082015250565b60006134f56015836124c2565b9150613500826134bf565b602082019050919050565b60006020820190508181036000830152613524816134e8565b9050919050565b600061353682612572565b915061354183612572565b9250827fffffffffffffffffffffffffffffffffffffffffffffffffffffffffffffffff0382111561357657613575612fcf565b5b828201905092915050565b600061358c82612572565b915061359783612572565b9250828210156135aa576135a9612fcf565b5b828203905092915050565b60006135c183856124c2565b93506135ce83858461299d565b6135d783612506565b840190509392505050565b60006040820190506135f760008301866126ca565b818103602083015261360a8184866135b5565b9050949350505050565b7f4f776e61626c653a206e6577206f776e657220697320746865207a65726f206160008201527f6464726573730000000000000000000000000000000000000000000000000000602082015250565b60006136706026836124c2565b915061367b82613614565b604082019050919050565b6000602082019050818103600083015261369f81613663565b9050919050565b600067ffffffffffffffff82169050919050565b60006136c5826136a6565b91506136d0836136a6565b92508167ffffffffffffffff04831182151516156136f1576136f0612fcf565b5b828202905092915050565b7f4552433732313a207472616e73666572206f6620746f6b656e2074686174206960008201527f73206e6f74206f776e0000000000000000000000000000000000000000000000602082015250565b60006137586029836124c2565b9150613763826136fc565b604082019050919050565b600060208201905081810360008301526137878161374b565b9050919050565b7f4552433732313a207472616e7366657220746f20746865207a65726f2061646460008201527f7265737300000000000000000000000000000000000000000000000000000000602082015250565b60006137ea6024836124c2565b91506137f58261378e565b604082019050919050565b60006020820190508181036000830152613819816137dd565b9050919050565b600061382c82846133fe565b915081905092915050565b7f4552433732313a206f70657261746f7220717565727920666f72206e6f6e657860008201527f697374656e7420746f6b656e0000000000000000000000000000000000000000602082015250565b6000613893602c836124c2565b915061389e82613837565b604082019050919050565b600060208201905081810360008301526138c281613886565b9050919050565b7f4552433732313a207472616e7366657220746f206e6f6e20455243373231526560008201527f63656976657220696d706c656d656e7465720000000000000000000000000000602082015250565b60006139256032836124c2565b9150613930826138c9565b604082019050919050565b6000602082019050818103600083015261395481613918565b9050919050565b7f4e487b7100000000000000000000000000000000000000000000000000000000600052601260045260246000fd5b600061399582612572565b91506139a083612572565b9250826139b0576139af61395b565b5b828204905092915050565b60006139c682612572565b91506139d183612572565b9250826139e1576139e061395b565b5b828206905092915050565b600081519050919050565b600082825260208201905092915050565b6000613a13826139ec565b613a1d81856139f7565b9350613a2d8185602086016124d3565b613a3681612506565b840191505092915050565b6000608082019050613a566000830187612607565b613a636020830186612607565b613a7060408301856126ca565b8181036060830152613a828184613a08565b905095945050505050565b600081519050613a9c81612428565b92915050565b600060208284031215613ab857613ab76123f2565b5b6000613ac684828501613a8d565b91505092915050565b7f4552433732313a206d696e7420746f20746865207a65726f2061646472657373600082015250565b6000613b056020836124c2565b9150613b1082613acf565b602082019050919050565b60006020820190508181036000830152613b3481613af8565b9050919050565b7f4552433732313a20746f6b656e20616c7265616479206d696e74656400000000600082015250565b6000613b71601c836124c2565b9150613b7c82613b3b565b602082019050919050565b60006020820190508181036000830152613ba081613b64565b905091905056fea26469706673582212203e06bc4bb30f95e02b87896bfce3411fa1c58755d02d93b679e9a4060908e4a364736f6c63430008090033",
  "immutableReferences": {},
  "source": "// SPDX-License-Identifier: MIT\npragma solidity ^0.8.2;\n\nimport \"@openzeppelin/contracts/access/Ownable.sol\";\nimport \"@openzeppelin/contracts/utils/Counters.sol\";\nimport \"./ERC721Payable.sol\";\n\n/// @custom:security-contact joel@oscillate.ch\ncontract OnescreenerHeroToken is Ownable, ERC721Payable {\n    using Counters for Counters.Counter;\n\n    event NewToken(uint256 tokenId, string domain);\n    event ReclaimToken(\n        address indexed from,\n        address indexed to,\n        uint256 tokenId\n    );\n    event Price(uint256 tokenId, uint256 price);\n    event ValuePaid(uint256 value, uint256 price);\n\n    uint256 initialFee = 0.001 ether;\n    uint256 maxTokenCount = 100;\n    uint256 validityTimespan = 7 days;\n\n    struct OnescreenerHero {\n        string domain;\n        uint8 transferCount;\n        uint32 validUntil;\n    }\n\n    Counters.Counter private _tokenIdCounter;\n    OnescreenerHero[] private _tokens;\n\n    mapping(uint256 => address) public tokenToOwner;\n\n    constructor() ERC721Payable(\"OnescreenerHeroToken\", \"OHT\") {}\n\n    modifier onlyOwnerOf(uint256 tokenId) {\n        require(_msgSender() == ownerOf(tokenId));\n        _;\n    }\n\n    function _baseURI() internal pure override returns (string memory) {\n        return \"https://hero.onescreener.com\";\n    }\n\n    // function safeMint(address to) public onlyOwner {\n    //     _safeMint(to, _tokenIdCounter.current());\n    //     _tokenIdCounter.increment();\n    // }\n\n    // Only contract owner can create new token and link it to a onescreener\n    function mint(string calldata domain) public onlyOwner {\n        require(_tokenIdCounter.current() < maxTokenCount, \"Maximum of 100 tokens reached\");\n        \n        (bool exists, uint256 existingTokenId) = getTokenOfDomain(domain);\n\n        require(!exists, \"Domain exists already\");\n\n        uint32 validUntil = uint32(block.timestamp + validityTimespan);\n        _tokens.push(OnescreenerHero(domain, 0, validUntil));\n        uint256 tokenId = _tokens.length - 1;\n\n        _safeMint(_msgSender(), tokenId);\n        _tokenIdCounter.increment();\n\n        emit NewToken(tokenId, domain);\n    }\n\n    function _getPrice(uint256 tokenId) internal view returns (uint256) {\n        uint256 price = (_tokens[tokenId].transferCount) * (1 ether);\n        uint256 fee = initialFee + price;\n\n        return fee;\n    }\n\n    // The owner needs to approve the transfer of the OHT token first\n    // Once approved, the new owner can claim the OHT token\n    function transferFrom(\n        address from,\n        address to,\n        uint256 tokenId\n    ) public payable override {\n        require(\n            msg.value >= _getPrice(tokenId),\n            \"ERC721Payable: the provided value is lower than the price \"\n        );\n        require(\n            getApproved(tokenId) == _msgSender(),\n            \"ERC721: transfer caller is not approved\"\n        );\n\n        _transfer(from, to, tokenId);\n        _tokens[tokenId].transferCount += 1;\n    }\n\n    // Re-claim approved token\n    function reclaim(address to, uint256 tokenId)\n        external\n        payable\n        onlyOwnerOf(tokenId)\n    {\n        require(getApproved(tokenId) == to);\n\n        approve(address(0), tokenId);\n\n        emit ReclaimToken(_msgSender(), to, tokenId);\n    }\n\n    function getTokens() external view returns (OnescreenerHero[] memory) {\n        return _tokens;\n    }\n\n    function getTokensByOwner(address _owner)\n        external\n        view\n        returns (uint256[] memory)\n    {\n        uint256[] memory result = new uint256[](balanceOf(_owner));\n        uint256 counter = 0;\n        for (uint256 i = 0; i < _tokenIdCounter.current(); i++) {\n            if (ownerOf(i) == _owner) {\n                result[counter] = i;\n                counter++;\n            }\n        }\n        return result;\n    }\n\n    function getApprovedTokenForOwner(address owner)\n        external\n        view\n        returns (uint256)\n    {\n        uint256 tokenId = 9999;\n\n        for (uint256 id = 0; id < _tokenIdCounter.current(); id++) {\n            if (_tokenApprovals[id] == owner) {\n                tokenId = id;\n            }\n        }\n        return tokenId;\n    }\n\n    function compareStrings(string memory a, string memory b) internal pure returns (bool) {\n        return (keccak256(abi.encodePacked((a))) == keccak256(abi.encodePacked((b))));\n    }\n\n    // Domain functions\n    function getTokenOfDomain(string memory domain)\n        public\n        view\n        returns (bool exists, uint256 tokenId)\n    {        \n        for (uint256 i = 0; i < _tokenIdCounter.current(); i++) {\n            OnescreenerHero storage token = _tokens[i];\n            if (compareStrings(domain, token.domain)) {\n                return (true, i);\n            }\n        }\n        return (false, 0);\n    }\n\n    function changeDomain(uint256 tokenId, string calldata domain)\n        external\n        onlyOwnerOf(tokenId)\n    {\n        _tokens[tokenId].domain = domain;\n    }\n}\n",
  "sourcePath": "/home/yurii/Documents/work/@optune/nft-onescreener-hero/contracts/OnescreenerHero/OnescreenerHeroToken.sol",
  "compiler": {
    "name": "solc",
    "version": "0.8.9+commit.e5eed63a.Emscripten.clang"
  },
  "schemaVersion": "3.4.4",
  "updatedAt": "2021-12-22T14:25:23.035Z",
  "devdoc": {
    "custom:security-contact": "joel@oscillate.ch",
    "kind": "dev",
    "methods": {
      "approve(address,uint256)": {
        "details": "See {IERC721-approve}."
      },
      "balanceOf(address)": {
        "details": "See {IERC721-balanceOf}."
      },
      "getApproved(uint256)": {
        "details": "See {IERC721-getApproved}."
      },
      "name()": {
        "details": "See {IERC721Metadata-name}."
      },
      "owner()": {
        "details": "Returns the address of the current owner."
      },
      "ownerOf(uint256)": {
        "details": "See {IERC721-ownerOf}."
      },
      "renounceOwnership()": {
        "details": "Leaves the contract without owner. It will not be possible to call `onlyOwner` functions anymore. Can only be called by the current owner. NOTE: Renouncing ownership will leave the contract without an owner, thereby removing any functionality that is only available to the owner."
      },
      "safeTransferFrom(address,address,uint256)": {
        "details": "See {IERC721-safeTransferFrom}."
      },
      "safeTransferFrom(address,address,uint256,bytes)": {
        "details": "See {IERC721-safeTransferFrom}."
      },
      "supportsInterface(bytes4)": {
        "details": "See {IERC165-supportsInterface}."
      },
      "symbol()": {
        "details": "See {IERC721Metadata-symbol}."
      },
      "tokenURI(uint256)": {
        "details": "See {IERC721Metadata-tokenURI}."
      },
      "transferFrom(address,address,uint256)": {
        "details": "See {IERC721-transferFrom}."
      },
      "transferOwnership(address)": {
        "details": "Transfers ownership of the contract to a new account (`newOwner`). Can only be called by the current owner."
      }
    },
    "version": 1
  },
  "userdoc": {
    "kind": "user",
    "methods": {},
    "version": 1
  }
}